:100000000C9426040C94B81E0C948D1E0C94621E45
:100010000C94371E0C940C1E0C94E11D0C94B61D10
:100020000C948B1D0C9457040C9457040C94570497
:100030000C9457040C9457040C9457040C945704D4
:100040000C9457040C94A31F0C9457040C9457045D
:100050000C9457040C9457040C9457040C94411DB1
:100060000C9457040C946D1F0C94431F0C9457046C
:100070000C9457040C9457040C9457040C94570494
:100080000C9457040C9457040C9457040C94570484
:100090000C940D1F0C94E31E0C9457040C945704FD
:1000A0000C9457040C9457040C9457040C94570464
:1000B0000C9457040C9457040C9457040C94570454
:1000C0000C9457040C9457040C9457040C94570444
:1000D0000C9457040C9457040C9457040C94570434
:1000E0000C9457040C94D2060C942D2D0C94920869
:1000F0000C9431140C94E0120C9464110C94BD0413
:100100000C94220B0C94B5050C949E040C94C3041F
:100110000C94B3040C9433100C94CB040C94FA1488
:100120000C94B6050C94A30B0C94A8040C943714EF
:100130000C94D1040C94B2060C9401060C94150690
:100140000C94B0040C9405110C9465060C940C0CE2
:100150000C9423060C94ED0D0C94AC040C94400A02
:100160000C94DE040C94630B0C94570D0C9421201A
:100170000C94F2050C94DF040C94C5050C943E0C11
:100180000C94E3040C94C7040C948C130C94B904E1
:100190000C94D6060C94D9040C9430080C94AF0837
:1001A0000C94B10A0C94DC110C94D5040C94A404A6
:1001B0000C942F0A00000000003E5B4F5B3E3E6B3C
:1001C0004F6B3E1C3E7C3E1C183C7E3C181C577DF1
:1001D000571C1C5E7F5E1C00183C1800FFE7C3E73D
:1001E000FF0018241800FFE7DBE7FF30483A060E4F
:1001F0002629792926407F050507407F05253F5A96
:100200003CE73C5A7F3E1C1C08081C1C3E7F142205
:100210007F22145F5F005F5F06097F017F006689B0
:10022000956A606060606094A2FFA29408047E04F6
:100230000810207E201008082A1C08081C2A08081C
:100240001E101010100C1E0C1E0C30383E383006DC
:100250000E3E0E06000000000000005F00000007D8
:10026000000700147F147F14242A7F2A1223130806
:10027000646236495620500008070300001C2241E2
:10028000000041221C002A1C7F1C2A08083E080886
:100290000080703000080808080800006060002036
:1002A000100804023E5149453E00427F4000724919
:1002B0004949462141494D331814127F10274545BD
:1002C00045393C4A494931412111090736494949D3
:1002D00036464949291E0000140000004034000041
:1002E00000081422411414141414004122140802AA
:1002F000015909063E415D594E7C1211127C7F491D
:100300004949363E414141227F4141413E7F494971
:1003100049417F090909013E414151737F0808089D
:100320007F00417F41002040413F017F081422416E
:100330007F404040407F021C027F7F0408107F3EC8
:100340004141413E7F090909063E4151215E7F0935
:10035000192946264949493203017F01033F40409C
:10036000403F1F2040201F3F4038403F6314081487
:100370006303047804036159494D43007F414141BF
:100380000204081020004141417F040201020440A0
:1003900040404040000307080020545478407F2824
:1003A0004444383844444428384444287F3854541A
:1003B000541800087E090218A4A49C787F0804043D
:1003C0007800447D40002040403D007F10284400DC
:1003D00000417F40007C047804787C08040478386D
:1003E00044444438FC1824241818242418FC7C089D
:1003F000040408485454542404043F44243C40401A
:10040000207C1C2040201C3C4030403C44281028CC
:10041000444C9090907C4464544C44000836410015
:100420000000770000004136080002010204023C8F
:100430002623263C1EA1A161123A4040207A38545E
:1004400054555921555579412254547842215554D7
:10045000784020545579400C1E527212395555552A
:1004600059395454545939555454580000457C4115
:100470000002457D420001457C407D1211127DF055
:10048000282528F07C545545002054547C547C0A7F
:10049000097F4932494949323A4444443A324A4848
:1004A00048303A4141217A3A42402078009DA0A04C
:1004B0007D3D4242423D3D4040403D3C24FF24249E
:1004C000487E4943662B2FFC2F2BFF0929F620C0BD
:1004D000887E090320545479410000447D4130480E
:1004E000484A32384040227A007A0A0A727D0D1951
:1004F000317D2629292F28262929292630484D40B3
:1005000020380808080808080808382F10C8ACBAAE
:100510002F102834FA00007B000008142A1422222D
:10052000142A14085500550055AA55AA55AAFF5576
:10053000FF55FF000000FF00101010FF00141414FE
:10054000FF001010FF00FF1010F010F0141414FC46
:10055000001414F700FF0000FF00FF1414F404FC63
:10056000141417101F10101F101F1414141F001044
:100570001010F0000000001F101010101F101010BD
:1005800010F010000000FF101010101010101010CC
:10059000FF10000000FF140000FF00FF00001F100C
:1005A000170000FC04F414141710171414F404F4C6
:1005B0000000FF00F714141414141414F700F714B7
:1005C0001414171410101F101F141414F414101006
:1005D000F010F000001F101F0000001F14000000AA
:1005E000FC140000F010F01010FF10FF141414FFA2
:1005F000141010101F00000000F010FFFFFFFFFF9D
:10060000F0F0F0F0F0FFFFFF0000000000FFFF0F30
:100610000F0F0F0F3844443844FC4A4A4A347E02D4
:10062000020606027E027E02635549416338444455
:100630003C04407E201E2006027E020299A5E7A50A
:10064000991C2A492A1C4C7201724C304A4D4D307B
:100650003048784830BC625A463D3E494949007EA0
:100660000101017E2A2A2A2A2A44445F4444405137
:100670004A444040444A51400000FF0103E080FFEB
:10068000000008086B6B083612362436060F090F77
:1006900006000018180000001010003040FF010193
:1006A000001F01011E00191D1712003C3C3C3C00BC
:1006B0000000000004E010021C07123732292D2927
:1006C000252B3900010310E110031D07062E2C29EC
:1006D0002D2E2E373F0000021013800A298064025D
:1006E0002A040000007F2B040000009F0F01809669
:1006F0001180FFB103012C2DB203012C2DB3060193
:100700002C2D012C2DB40107C003A20284C101C508
:10071000C2020A00C3028A2AC4028AEEC5010E2060
:10072000003601C83A010500002100240027002AF4
:10073000002D003000330001010000040107010A10
:100740000100000A0B02090C0D0E0807030401004A
:100750000000000000000000000000000000000099
:100760000000000000000000000000000012111056
:100770000000000000000000000000000000000079
:100780000000000000000000002200250028002BCF
:10079000002E003100340002010000050108010BA9
:1007A0000101021020200808102040102040800283
:1007B00001020108040201010204081020408080A7
:1007C000402010080402018004020180402010082B
:1007D0000402010804020101020408102040800103
:1007E0000204081020408000002000230026002979
:1007F000002C002F00320000010000030106010957
:100800000105050505070508080808020202020A95
:100810000A080804040404010101010101010103A3
:1008200003030303030303040707070C0C0C0C0C5E
:100830000C0C0C0202020206060606060606060B51
:100840000B0B0B0B0B0B0B0021202D2D11241FBEAE
:10085000CFEFD1E2DEBFCDBF00E00CBF27E0A6E2C4
:10086000B5E001C01D92A136B207E1F715E0A0E0A6
:10087000B2E0E4EBFAE600E00BBF02C007900D9295
:10088000A632B107D9F714E0C5E2D4E000E006C013
:1008900021970109802FFE010E94872FC432D107C2
:1008A00080E00807A9F70E9451220C9448350C9467
:1008B0000000FC01A089B18982E08C93A485B585F4
:1008C0001C92A685B78580E18C93108EA489B5898A
:1008D00086E08C93A289B3898C9180618C93A289E4
:1008E000B3898C9188608C93A289B3898C9180683C
:1008F0008C930288F389E02D80818F7D8083089519
:100900008150823108F05AC0E82FF0E08827E45780
:10091000FB4F8F4F0C94872FAC04B0049E04A404AB
:10092000A804DE04B304B904BD04C304C704CB04A3
:10093000D104D504DE04D904DF04E30480918000EF
:100940008F77809380000895809180008F7DF9CF0C
:1009500080918000877FF5CF84B58F7784BD08951F
:1009600084B58F7DFBCF8091B0008F778093B000EE
:1009700008958091B0008F7DF9CF809190008F779E
:10098000809390000895809190008F7DF9CF8091A1
:100990009000877FF5CF8091A0008F778093A00093
:1009A00008958091A0008F7DF9CF8091A000877F6E
:1009B000F5CF809120018F77809320010895809159
:1009C00020018F7DF9CF80912001877FF5CF1F9384
:1009D000CF93DF93282F30E0F901EF5BF84F84913C
:1009E000F901EF55F84FD491F901EF5FF74FC4913A
:1009F000CC23A9F0162F81110E948004EC2FF0E087
:100A0000EE0FFF1FE957F84FA591B4918FB7F894F7
:100A1000EC91111108C0D095DE23DC938FBFDF91DC
:100A2000CF911F910895DE2BF8CFCF93DF9390E005
:100A3000FC01EF55F84F24918F5F974FFC01849193
:100A40008823C9F090E0880F991FFC01E95DF84FF9
:100A5000A591B491FC01E957F84FC591D49161116A
:100A60000DC09FB7F8948C91209582238C93888138
:100A7000282328839FBFDF91CF910895623051F4DE
:100A80009FB7F8943C91822F809583238C93E881C3
:100A90002E2BEFCF8FB7F894EC912E2B2C938FBF8A
:100AA000EACF3FB7F89480915C0590915D05A091E5
:100AB0005E05B0915F0526B5A89B05C02F3F19F0D4
:100AC0000196A11DB11D3FBFBA2FA92F982F8827CE
:100AD000BC01CD01620F711D811D911D42E0660FA9
:100AE000771F881F991F4A95D1F708958F929F927B
:100AF000AF92BF92CF92DF92EF92FF926B017C0197
:100B00000E9451054B015C01C114D104E104F104C0
:100B1000B9F00E945105681979098A099B09683E54
:100B200073408105910580F321E0C21AD108E108E4
:100B3000F10888EE880E83E0981EA11CB11CE4CF5A
:100B4000FF90EF90DF90CF90BF90AF909F908F90ED
:100B500008952FB7F89460915805709159058091C8
:100B60005A0590915B052FBF089508950895DB0104
:100B700014964D915C9115976D917C91DC01ED91EE
:100B8000FC910280F381E02D1994AF92BF92CF9235
:100B9000DF92EF92FF920F931F93CF93DF936C013D
:100BA0007B018B01040F151FEB015E01AE18BF081E
:100BB000C017D10759F06991D601ED91FC910190D0
:100BC000F081E02DC6011995892B79F7C501DF91D8
:100BD000CF911F910F91FF90EF90DF90CF90BF903A
:100BE000AF900895FC01538D448D252F30E0842F64
:100BF00090E0821B930B541710F0CF960895019745
:100C00000895FC01918D828D981761F0A28DAE0F31
:100C1000BF2FB11D5D968C91928D9F5F9F73928FB8
:100C200090E008958FEF9FEF0895FC01918D828DE4
:100C3000981731F0828DE80FF11D858D90E00895B1
:100C40008FEF9FEF0895FC01918D228D892F90E009
:100C5000805C9F4F821B91098F739927089580E6CE
:100C600095E00E94230621E0892B09F420E0822FE1
:100C700008958DEF95E00E94230621E0892B09F469
:100C800020E0822F0895FC01A48DA80FB92FB11D7B
:100C9000A35ABF4F2C91848D90E001968F739927B2
:100CA000848FA689B7892C93A089B1898C91837090
:100CB00080648C93938D848D981306C00288F38989
:100CC000E02D80818F7D80830895EF92FF920F93B6
:100CD0001F93CF93DF93EC0181E0888F9B8D8C8DE8
:100CE00098131AC0E889F989808185FF15C09FB7DC
:100CF000F894EE89FF896083E889F989808183709F
:100D0000806480839FBF81E090E0DF91CF911F914D
:100D10000F91FF90EF900895F62E0B8D10E00F5F6E
:100D20001F4F0F731127E02E8C8D8E110CC00FB644
:100D300007FCFACFE889F989808185FFF5CFCE01DC
:100D40000E944306F1CFEB8DEC0FFD2FF11DE35A0E
:100D5000FF4FF0829FB7F8940B8FEA89FB8980815F
:100D60008062CFCFCF93DF93EC01888D8823B9F0D9
:100D7000AA89BB89E889F9898C9185FD03C08081A6
:100D800086FD0DC00FB607FCF7CF8C9185FFF2CF23
:100D9000808185FFEDCFCE010E944306E9CFDF9130
:100DA000CF910895862F642F0C941505CF93DF9370
:100DB000FC01218930E0F901EF5BF84F8491F901E2
:100DC000EF55F84FD491F901EF5FF74FC491CC2361
:100DD00079F081110E948004EC2FF0E0EE0FFF1FEC
:100DE000E951F84FA591B491EC91ED2381E009F41C
:100DF00080E08170DF91CF910895FC01A5A1B6A19B
:100E00008C9192A589238C93A5A1B6A18C9191A5D3
:100E1000892B8C930895DC019396ED91FC91949726
:100E2000908198968C91892380830895DC01939614
:100E3000ED91FC919497908197968C91892B80836A
:100E40000895DC019196ED91FC9192979081969690
:100E50008C91892380830895DC019196ED91FC911A
:100E60009297908195968C91892B80830895CF924B
:100E7000DF92EF92FF921F93CF93DF93EC016A0111
:100E80007B018DA9811123C08F2D9927AA27BB270C
:100E90008EBD0DB407FEFDCFC701AA27BB278EBDAF
:100EA0000DB407FEFDCFBB27AF2D9E2D8D2D8EBD22
:100EB0000DB407FEFDCFCEBC0DB407FEFDCFDF9114
:100EC000CF911F91FF90EF90DF90CF9008958130E8
:100ED000B1F410E2CE01F7FE0FC00E942C07CE0144
:100EE0000E941607CE010E940B07CC0CDD1CEE1CE5
:100EF000FF1C115079F7E3CF0E942107F0CFEF8D4F
:100F0000F8A18F2D9927AA27BB278083CE010E94A5
:100F1000FD06EF8DF8A1C701AA27BB278083CE016C
:100F20000E94FD06EF8DF8A1BB27AF2D9E2D8D2DC4
:100F30008083CE010E94FD06EF8DF8A1C082CE0114
:100F4000DF91CF911F91FF90EF90DF90CF900C94A5
:100F5000FD06FF920F931F93CF93DF93EC018B015C
:100F60008DA981110EC01EBD0DB407FEFDCF0EBDB3
:100F70000DB407FEFDCFDF91CF911F910F91FF9030
:100F800008958130B1F490E1F92ECE0117FF0EC023
:100F90000E942C07CE010E941607CE010E940B076B
:100FA000000F111FFA94F110F0CFE5CF0E94210736
:100FB000F1CFEF8DF8A11083CE010E94FD06EF8DD9
:100FC000F8A10083CE01DF91CF911F910F91FF9087
:100FD0000C94FD060F931F93CF93DF93EC01162F14
:100FE0008DA9811109C06EBD0DB407FEFDCFDF9143
:100FF000CF911F910F910895813099F408E0CE01AF
:1010000017FF0CC00E942C07CE010E941607110F7B
:10101000CE010E940B07015091F7E9CF0E942107F2
:10102000F3CFEF8DF8A16083CE01DF91CF911F91B7
:101030000F910C94FD06CF93DF93EC01ED8DFE8DA7
:1010400080819CA989238083CE010E94EA07ED8DCF
:10105000FE8D80819BA9892B8083DF91CF9108959C
:101060008F929F92AF92BF92CF92DF92EF92FF92B8
:101070000F931F93CF93DF93EC0189AD9AAD680F67
:10108000791F8BAD9CAD480F591F21503109260F98
:10109000371F4901B12CA12CCB01B0E0A0E0DC014D
:1010A00099278827882A992AAA2ABB2A680181E0D9
:1010B000C81AD108C40ED51EF12CE12C70E060E0F6
:1010C000BA0155274427C42AD52AE62AF72A6AE214
:1010D000CE010E941B08B501A401CE010E94370772
:1010E0006BE2CE010E941B08B701A601CE010E944F
:1010F00037076CE2CE01DF91CF911F910F91FF90E6
:10110000EF90DF90CF90BF90AF909F908F900C9416
:101110001B08FC0185A9811104C091A182A19CBD7D
:101120008DBD08951F93CF93DF93EC01162FE881B7
:10113000F9810284F385E02D1995112371F06DADCD
:10114000CE010E941B08E881F9810688F789E02D0D
:10115000CE01DF91CF911F9119946EADF1CFAF9277
:10116000BF92CF92DF92EF92FF920F931F93CF9394
:10117000DF93EC0177FD38C088859985681779077A
:101180009CF557FD31C08A859B854817590764F542
:1011900069017A015B01E881F9810284F385E02D20
:1011A000CE011995E881F98102A4F3A5E02D01E0B3
:1011B00010E021E030E0A701B501CE011995B6019C
:1011C000CE010E94A907E881F9810688F789E02D00
:1011D000CE01DF91CF911F910F91FF90EF90DF90A3
:1011E000CF90BF90AF901994DF91CF911F910F9145
:1011F000FF90EF90DF90CF90BF90AF9008958F92C7
:101200009F92AF92BF92CF92DF92EF92FF920F9395
:101210001F93CF93DF93EC0149015701E881F981D6
:1012200002A4F3A5E02D19959401D8010E948F2FF7
:101230006B017C01C114D104E104F10409F47DC007
:101240008DA9811115C081E0C81AD108E108F10803
:101250008FEFC816D806E806F80609F46EC0BEBCC3
:101260000DB407FEFDCFAEBC0DB407FEFDCFEBCF36
:10127000813099F581E0C81AD108E108F1088FEFB3
:10128000C816D806E806F80609F457C00B2D18E072
:10129000CE0107FF1CC00E942C07CE010E9416073A
:1012A000CE010E940B07000F115091F70A2D18E094
:1012B000CE0107FF0FC00E942C07CE010E94160727
:1012C000CE010E940B07000F115091F7D3CF0E945F
:1012D0002107E3CF0E942107F0CFBA1016C0CC0C33
:1012E000DD1CEE1CFF1CEF8DF8A1B08281E0C81A56
:1012F000D108E108F1088FEFC816D806E806F8060D
:10130000E1F0CE010E94FD06F1CF81E0C81AD108BC
:10131000E108F1088FEFC816D806E806F80669F06C
:10132000EF8DF8A1B082CE010E94FD06EF8DF8A1ED
:10133000A082CE010E94FD06E8CFDF91CF911F91E0
:101340000F91FF90EF90DF90CF90BF90AF909F9064
:101350008F9008958F929F92AF92BF92CF92DF921B
:10136000EF92FF920F931F93CF93DF934C01EB010A
:101370006A01590137FF07C0C9010196C80FD91F7B
:10138000B194A194B108F401A085B185CA17DB0717
:101390000CF058C017FF07C0C8010196C80ED91E2F
:1013A000119501951109F40182859385C816D90616
:1013B0000CF048C0FE01EA0DFB1DAF014150510980
:1013C00057FD40C0B601600F711F9B0121503109CC
:1013D00037FD38C0D7FF03C05F01D0E0C0E0D7FEC3
:1013E00003C08B01D12CC12C4A175B071CF05D0197
:1013F000AC1ABD0A281739071CF08C010C191D09FD
:10140000D401ED91FC910284F385E02DC40119957E
:101410009501A601BE01C4010E94FF08D401ED910F
:10142000FC910688F789E02DC401DF91CF911F91CF
:101430000F91FF90EF90DF90CF90BF90AF909F9073
:101440008F901994DF91CF911F910F91FF90EF90A2
:10145000DF90CF90BF90AF909F908F900895EF92C4
:10146000FF920F931F932115310529F001151105E6
:1014700011F00E94AA091F910F91FF90EF9008951B
:101480008F929F92AF92BF92CF92DF92EF92FF9294
:101490000F931F93CF93DF935C014B016A01E90126
:1014A00077FD52C0DC0118968D919C9168177907E1
:1014B0000CF04AC0209709F447C037FF07C0C901A4
:1014C0000196C80ED91ED195C195D109F501828525
:1014D0009385C816D906C4F5A6014C0F5D1F9A0165
:1014E0002150310937FD30C0D7FE03C0EA01D12CAD
:1014F000C12C281739071CF0EC01CC19DD09D501E6
:10150000ED91FC910284F385E02DC50119957801D8
:101510008E0121E030E0A601B401C5010E94FF0860
:10152000D501ED91FC910688F789E02DC501DF9189
:10153000CF911F910F91FF90EF90DF90CF90BF90D0
:10154000AF909F908F901994DF91CF911F910F9141
:10155000FF90EF90DF90CF90BF90AF909F908F90D3
:1015600008958F929F92AF92BF92CF92DF92EF92A7
:10157000FF920F931F93CF93DF935C016B014A019E
:10158000E90157FD52C0DC011A968D919C914817D4
:1015900059070CF04AC0209709F447C037FF07C02D
:1015A000C9010196C80ED91ED195C195D109F50181
:1015B00080859185C816D906C4F5A6014C0F5D1F1C
:1015C0009A012150310937FD30C0D7FE03C0EA012E
:1015D000D12CC12C281739071CF0EC01CC19DD09DE
:1015E000D501ED91FC910284F385E02DC50119959B
:1015F000780101E010E09E01A401B601C5010E943E
:10160000FF08D501ED91FC910688F789E02DC50111
:10161000DF91CF911F910F91FF90EF90DF90CF90CE
:10162000BF90AF909F908F901994DF91CF911F91B1
:101630000F91FF90EF90DF90CF90BF90AF909F9071
:101640008F900895EF92FF920F931F93CF93DF93A4
:1016500077FD32C0DC011896ED91FC916E177F0783
:101660005CF52115310541F137FF07C0F9013196CD
:101670004E0F5F1F319521953109DC011A96ED91CE
:10168000FC914E175F07C4F4EA01C20FD31FDE01BD
:101690001197B7FD11C057FF03C09E0150E040E015
:1016A000AE17BF071CF09F01241B350B7801890181
:1016B00021E030E00E94FF08DF91CF911F910F9150
:1016C000FF90EF900895EF92FF920F931F93CF93A7
:1016D000DF9357FD31C0DC011A96ED91FC914E1756
:1016E0005F0754F52115310539F137FF07C0F901BE
:1016F00031966E0F7F1F319521953109DC011896C7
:10170000ED91FC916E177F07BCF4EB01C20FD31F64
:10171000DE011197B7FD10C077FF03C09E0170E096
:1017200060E0AE17BF071CF09F01261B370B780146
:1017300001E010E00E94FF08DF91CF911F910F910F
:10174000FF90EF9008958F929F92AF92BF92CF92A9
:10175000DF92EF92FF920F931F93CF93DF93470196
:101760002115310509F44BC00115110509F447C0D5
:1017700037FF07C0F90131966E0F7F1F3195219514
:101780003109DC011896AD90BC906A157B05BCF55B
:1017900017FF07C0F80131964E0F5F1F1195019595
:1017A0001109DC011A96ED91FC914E175F073CF58B
:1017B0006B01C20ED31EE6012197D7FD20C07A012E
:1017C000E00EF11ED7011197B7FD19C077FF03C0D6
:1017D000960170E060E057FF03C0870150E040E0F1
:1017E000CA15DB051CF09501261B370BAE17BF078A
:1017F0001CF08F01041B150B74010E94FF08DF9180
:10180000CF911F910F91FF90EF90DF90CF90BF90FD
:10181000AF909F908F900895EF92FF920F931F9338
:10182000CF93DF93EC0177FD22C0888599856817F7
:101830007907ECF457FD1BC08A859B85481759072B
:10184000B4F47901E881F98102A4F3A5E02D01E067
:1018500010E021E030E0CE011995B701CE01DF9113
:10186000CF911F910F91FF90EF900C94A907DF91FA
:10187000CF911F910F91FF90EF900895CF93DF9339
:10188000EC010E9489088FA987FD06C0EB8DFC8DB5
:1018900080819AA989238083DF91CF91089508954B
:1018A000AF92BF92CF92DF92EF92FF920F931F936E
:1018B000CF93DF93BC016F5F7F4FFC0114911150F8
:1018C00008F47AC0FB01D4917B01F2E0EF0EF11C29
:1018D000FB0131960491C02FCF7780EB96E00E94F8
:1018E00089088091E70687FD09C0E091CB06F09159
:1018F000CC0680819091E20689238083E091CD0619
:10190000F091CE0680819091E406892380836D2F2B
:1019100080EB96E00E94EA07E091CD06F091CE06BA
:1019200080819091E306892B8083F701B12CA12C53
:10193000D0E0AC16BD06F4F48091E5066F0182306C
:1019400081F48091E006882361F0619171916F01CB
:1019500080EB96E00E94A907EFEFAE1ABE0AF601EF
:10196000E8CF8FEFC81AD80A649180EB96E00E9406
:10197000EA07F2CF8091E70687FD09C0E091CB0628
:10198000F091CC0680819091E106892B8083B7018C
:101990006C0F7D1F07FF93CFEB012196FB01649134
:1019A00070E06F3F710511F464EF71E090E080E04A
:1019B0000E947605BE0183CFDF91CF911F910F91D9
:1019C000FF90EF90DF90CF90BF90AF9008950F936E
:1019D0001F93CF93DF93EC018B010E9489088FA99D
:1019E00087FD06C0EB8DFC8D80819AA989238083B9
:1019F000ED8DFE8D80819CA98923808366E3CE01D5
:101A00000E94EA07ED8DFE8D80819BA9892B808342
:101A10008DA9F801823091F06081CE010E94EA0721
:101A20008FA987FD06C0EB8DFC8D808199A9892B3C
:101A30008083DF91CF911F910F91089588A988230A
:101A400059F360817181CE010E94A907E9CFCF933C
:101A5000DF931F92CDB7DEB7FC0119826370668BEE
:101A6000DC01AD5BBF4F2C9130E011968C9190E082
:101A7000623031F06330C9F0613081F040EC49836D
:101A800032AF21AF94AF83AFBE016F5F7F4FCF0105
:101A90000E94E70C0F90DF91CF91089540EA4983AF
:101AA00034AF23AF92AF81AFEFCF40E6F8CFCF9303
:101AB000DF931F92CDB7DEB7FC0119826370668B8E
:101AC000DC01AA5BBF4F8C91982F9B7FAF014C5BD1
:101AD0005F4F913031F493E0623008F091E0DA0129
:101AE0009C939F012D5B3F4F623009F44CC06330E3
:101AF00009F459C0613069F1823021F098EC8430EA
:101B000009F046C090EC99838130D1F480E890E0F0
:101B10009387828791878087D9018C9190E092AFDB
:101B200081AFDA018C9190E094AF83AFBE016F5F1B
:101B30007F4FCF010E94E70C0F90DF91CF91089566
:101B4000843051F580EA90E09387828780E590E0C9
:101B5000E1CF823019F098EA843061F590EA9983F8
:101B6000813091F580E890E0918780879387828724
:101B7000D9018C9190E094AF83AFDA018C9190E021
:101B800092AF81AFD3CF823039F08430D9F298E070
:101B90009983813009F4BACF80EA90E093878287F5
:101BA00080E890E0B7CF823019F098E6843011F4E5
:101BB00090E6D5CF99838130A9F280EA90E09187B1
:101BC000808780E890E0D2CF8430B9F780EA90E057
:101BD0009187808780E590E0C9CFFC0187A987FDC8
:101BE00006C0A38DB48D9C9181A9892B8C930895F7
:101BF0000895FC016370668B84819581268137810D
:101C0000613039F0633029F09187808733872287EC
:101C10000895318720879387828708952F923F9276
:101C20004F925F926F927F928F929F92AF92BF92EC
:101C3000CF92DF92EF92FF920F931F93CF93DF9398
:101C4000CDB7DEB76A970FB6F894DEBF0FBECDBF33
:101C50009A8F898F7A8369834A01D22E18870F83DE
:101C60003701BC2CDC0159962D913C915A972115D6
:101C7000310509F015C118968D919C911997681737
:101C800079070CF0D7C11A968D919C914817590786
:101C90000CF0D0C14C2C512CB6E0CB9E600D711DC8
:101CA00011247C876B87161617060CF0C3C1EA2D2A
:101CB000F0E0FA87E98793E0EE0FFF1F9A95E1F7CE
:101CC000F88BEF87CF01840F951F181619060CF0BB
:101CD000B1C1A98DBA8D58968C91811104C0BFEA0B
:101CE000BD1508F4D394A98DBA8DED91FC9111978F
:101CF0000284F385E02DCD011995B5E0DB9EC0018E
:101D00001124E981FA81FC83EB83312C212C9C0185
:101D10002C543E4F388F2F8B4A2D50E05E8B4D8BCD
:101D2000EF89F88DE20DF31D44919E828D82D12CB6
:101D3000C12C69817A81620D731D7A8B698B842F26
:101D400090E09C8B8B8BE98DFA8DA081B18140FF57
:101D500082C0F1E0BF126FC0AF126DC01C96ED9152
:101D6000FC912F813885A4014C0D5D1D69897A890C
:101D7000898D9A8D1995EB89FC89F595E7954E2FFC
:101D80005FEFC51AD50A6D817E818D899E89680FA6
:101D9000791F7E836D8398E0C916D10481F6AFEF79
:101DA0002A1A3A0AEB81FC81E40DF51DFC83EB83D2
:101DB000F5E02F16310409F0B3CF2F8138852615B1
:101DC0003705B9F0A98DBA8DED91FC91B1E0BB1248
:101DD00057C0AB1255C069817A816B5F7F4F008815
:101DE000F189E02D830128E030E0A401898D9A8DEE
:101DF0001995A98DBA8DED91FC9111970688F789F7
:101E0000E02DCD016A960FB6F894DEBF0FBECDBFB0
:101E1000DF91CF911F910F91FF90EF90DF90CF90C6
:101E2000BF90AF909F908F907F906F905F904F90FA
:101E30003F902F9019941E96ED91FC91EF80F884BD
:101E400009851A8592014D815E816B817C81898D26
:101E50009A8D199590CF2F8138852615370509F46D
:101E60008ACF31E0B31207C0A31205C01C96ED91D2
:101E7000FC91930178CF1E96ED91FC917301E0CF18
:101E80006B857C85641975090684F785E02D7301DF
:101E90000F8518899201A401898D9A8D1995A9CF72
:101EA000F90134969491329745915491D91AB7E03B
:101EB000DB9E400D511D1124F901259134913C8B7D
:101EC0002B8BFA0125903490FA013296749031965A
:101ED0003491398B329664903196449041E04C15A0
:101EE00018F04A1508F07FC0662D062C000C770B01
:101EF0007C836B83842D042C000C990B9E838D8333
:101F0000A98DBA8DED91FC9111970284F385E02D96
:101F1000CD011995512CD12CC12CEA2DF0E0FA8776
:101F2000E9872B2D30E03C872B87A401440D511D00
:101F300047FC5A95588F4F8B69817A81660D711DC8
:101F400067FC7A957E876D877989C71608F051CF2F
:101F50002C2D30E04D815E81420F531FA985BA853B
:101F60004A9FC0014B9F900D5A9F900D1124FC0178
:101F7000E80DF91DF88BEF87852D612C4F89588D61
:101F8000420F531F5E8B4D8B671408F050C04424E2
:101F90004394480E877041F4C1010196EB89FC8996
:101FA000E20DF31DD4901C01D7FE19C0A98DBA8D86
:101FB000ED91FC91662D70E0B1E0BB1219C0AB123F
:101FC00017C02D853E85620F731F0484F585E02DB3
:101FD0002F8138854D895E89898D9A8D1995DD0C03
:101FE0006394842DD1CF1E821D821C821B8288CFD8
:101FF0004B815C81640F751FAB85BC856A9FC001F6
:102000006B9F900D7A9F900D112469817A81680FE2
:10201000791F0684F785E02DEF80F88409851A85FD
:102020009D014F855889898D9A8D1995D8CF570C68
:10203000C3948ACF6A960FB6F894DEBF0FBECDBFA9
:10204000DF91CF911F910F91FF90EF90DF90CF9094
:10205000BF90AF909F908F907F906F905F904F90C8
:102060003F902F9008958F929F92AF92CF92EF92D0
:10207000FF920F931F93CF93DF93EC01262F898D4F
:102080009A8D009709F051C06A30D1F41D861C86E4
:102090008D8948E0849F900111248E859F85820F51
:1020A000931F9F878E8781E090E0DF91CF911F91F2
:1020B0000F91FF90EF90CF90AF909F908F900895E9
:1020C0006D3089F3CC88AD888F898823C1F08C85E9
:1020D0009D8536E0C39E800D911D1124488559854C
:1020E0004817590764F44E855F851D861C8638E0C5
:1020F000A39EC0011124840F951F9F878E87EA88B5
:10210000FB88088919894E855F856C857D85CE01A0
:102110000E940E0E2C898C859D8546E0249F800DA3
:10212000911D11249D878C87BECF6A3069F41D866E
:102130001C86FC013896E4912D898E859F85E29F4F
:10214000800D911D1124ADCF6D3009F4ACCFFC0191
:1021500034963491631708F4A6CF3296E491E617CB
:1021600008F4A1CFFC01329685909490462F431B32
:10217000342F47E0349F800C911C1124F4013296D7
:1021800034913196E4913323A9F1EE2399F1CC886F
:10219000F4013596E491AD884F89442301F10E2E68
:1021A000000CFF0BE30FF11DCE9EA001CF9E500D42
:1021B00011246C857D85460F571F688579856417C6
:1021C00075076CF44E855F851D861C86FC0138966C
:1021D000E491AE9E400D511D11245F874E87EA8821
:1021E000FB88088919894E855F856C857D85CE01C0
:1021F0000E940E0EF4013496E4912C898C859D8505
:10220000E29F800D911D11248DCF6F927F928F924E
:102210009F92AF92BF92CF92DF92EF92FF920F9375
:102220001F93CF93DF93EC016B015A0139014801F1
:10223000E881F9810284F385E02D1995E881F9811F
:102240000288F389E02D87019301A501B601CE0133
:102250001995A501480D591D41505109E881F98191
:102260000288F389E02D9301B601CE011995E8812A
:10227000F9810088F189E02D9401A501B601CE0114
:102280001995C60CD71CB60161507109E881F98116
:102290000088F189E02D9401A501CE011995E8810E
:1022A000F9810688F789E02DCE01DF91CF911F914A
:1022B0000F91FF90EF90DF90CF90BF90AF909F90E5
:1022C0008F907F906F9019946F927F928F929F92D0
:1022D000AF92BF92CF92DF92EF92FF920F931F9334
:1022E000CF93DF935C01EB016A014901380187015B
:1022F000DC01ED91FC916217730719F56416750600
:102300002CF0962D872D3A01C92ED82E960126192C
:1023100037092F5F3F4F048CF58DE02DA301BE01DF
:10232000C5011995DF91CF911F910F91FF90EF900B
:10233000DF90CF90BF90AF909F908F907F906F90E5
:1023400008954615570591F42617370724F0892D6F
:102350004B01C22FD82F9E01281939092F5F3F4FFB
:10236000068CF78DE02DA601B401DACF0284F38547
:10237000E02D1995D501ED91FC910488F589E02DAA
:1023800083019401A601BE01C5011995D501ED9106
:10239000FC910688F789E02DC501DF91CF911F914F
:1023A0000F91FF90EF90DF90CF90BF90AF909F90F4
:1023B0008F907F906F901994EF92FF920F931F93DD
:1023C000DC011A960D911C911B9718962D913C914A
:1023D0001997ED91FC9100A0F1A1E02D7B0150E057
:1023E00040E070E060E019951F910F91FF90EF9031
:1023F00008954F925F926F927F928F929F92AF92C9
:10240000BF92CF92DF92EF92FF920F931F93CF93E1
:10241000DF936C012B015A0139014801DC01ED9178
:10242000FC910284F385E02D1995E201640C751C82
:10243000D601ED91FC91C615D7055CF40088F189B1
:10244000E02D87019401A501BE01C60119952196D1
:10245000EFCF0688F789E02DC601DF91CF911F915C
:102460000F91FF90EF90DF90CF90BF90AF909F9033
:102470008F907F906F905F904F9019948F929F9262
:10248000AF92BF92CF92DF92EF92FF920F931F9382
:10249000CF93DF93EC015B014A016901E881F98187
:1024A0000284F385E02D199595012C0D3D1D2150D9
:1024B0003109E881F9810488F589E02D78018401EA
:1024C000A401B501CE011995E881F9810688F78943
:1024D000E02DCE01DF91CF911F910F91FF90EF90F2
:1024E000DF90CF90BF90AF909F908F9019948F9274
:1024F0009F92AF92BF92CF92DF92EF92FF920F9393
:102500001F93CF93DF93EC015B014A0169017801CE
:10251000E881F9810284F385E02D1995C80CD91C56
:10252000860101501109E881F9810488F589E02DBF
:102530009501A401B501CE011995E881F9810688BC
:10254000F789E02DCE01DF91CF911F910F91FF9080
:10255000EF90DF90CF90BF90AF909F908F901994A5
:102560000895EF92FF920F931F93DC01ED91FC9180
:1025700000A0F1A1E02D19951F910F91FF90EF9010
:1025800008950F931F93DC01ED91FC91068CF78D5C
:10259000E02D19951F910F9108950F931F93DC0162
:1025A000ED91FC91048CF58DE02D19951F910F9103
:1025B0000895DC01ED91FC910084F185E02D1994E2
:1025C0002F923F924F925F926F927F928F929F9243
:1025D000AF92BF92CF92DF92EF92FF920F931F9331
:1025E000CF93DF9300D000D0CDB7DEB73C016A01B6
:1025F0003E832D83FC82EB825801A41AB50AB7FEF4
:1026000003C0B194A194B1088D809E80861A970A68
:1026100097FE03C09194819491088A149B045CF006
:10262000902F812F0D811E819D838E839C2D8D2D5A
:102630006B01692F782F0C151D055CF09D818E8133
:102640007E836D83692F782F902F812F8601C92E6D
:10265000D82E1601201A310A2B012D813E81421AF3
:10266000530A57FE03C0519441945108710137FE3B
:1026700003C03FEFE31AF30AF594E7948D819E813E
:10268000861797075CF5A1E0B0E0BA83A983C0166E
:10269000D1064CF1D301ED91FC910484F585E02D38
:1026A0002B813C81A8016D817E818A149B041CF0E2
:1026B0004D815E81B801C3011995E418F508F7FE54
:1026C0000AC02D813E8189819A81280F391F3E835E
:1026D0002D83E20CF31C0F5F1F4FD9CF2FEF3FEF7D
:1026E0003A832983D4CF26960FB6F894DEBF0FBE67
:1026F000CDBFDF91CF911F910F91FF90EF90DF90B1
:10270000CF90BF90AF909F908F907F906F905F9091
:102710004F903F902F90089590E080E00895CF92E1
:10272000DF92EF92FF92C090A803D090A903E090AF
:10273000AA03F090AB036A3071058105910520F47E
:102740006AE070E080E090E00E94452EA7019601CB
:102750000E94822E9B01AC0160E074E284EF9AE457
:102760000E949E2F0E94103061157105810521E0A5
:10277000920748F56115710520E48207910530F54F
:102780006115710528E08207910518F5611571053D
:1027900021E08207910500F530E021E004C0969524
:1027A0008795779567953A95D2F7709397036093DD
:1027B00096032093330581E080933205FF90EF90DC
:1027C000DF90CF9008953AE025E0E8CF38E024E0AC
:1027D000E5CF36E023E0E2CF33E022E0DFCFDC01DB
:1027E000ED91FD918081ED91FD919081ED91FD91B3
:1027F0006C9163708E2309F064609F2309F0686018
:10280000ECE0F4E1E60FF11D659565956D936D9132
:102810007D918D919D91099423C01AC012C016C05C
:1028200010C01EC009C014C013C006C019C009C022
:102830000DC007C00DC014C0625070408040904071
:102840000BC0615070408040904006C06E5F01C078
:102850006F5F7F4F8F4F9F4F9E938E937E936E93AC
:1028600008958091A3069091A4060C94EF13809193
:10287000A5069091A6060C94EF138091A70690915F
:10288000A8060C94EF138091A9069091AA060C94C7
:10289000EF138091AB069091AC060C94EF138091EE
:1028A000AD069091AE060C94EF130F931F93CF9348
:1028B000DF934115510541F0FC010481158101159B
:1028C000110539F4FB011082DF91CF911F910F9117
:1028D0000895415051094017510708F48A01EB014E
:1028E000FC0160817181A801CE010E946332C00F9A
:1028F000D11F1882E9CFFB0101900020E9F7319741
:10290000AF01461B570BDC01ED91FC910280F38176
:10291000E02D19948F929F92AF92BF920F931F93C5
:10292000CF93DF93CDB7DEB7A1970FB6F894DEBF94
:102930000FBECDBF19A2423008F44AE08E010F5DF0
:102940001F4F842E912CB12CA12CA50194010E9423
:10295000652FE62FB901CA01EA3004F5E05DD80120
:10296000EE938D01232B242B252B79F790E080E02B
:10297000109729F0BD018DEF95E00E947B14A19680
:102980000FB6F894DEBF0FBECDBFDF91CF911F9180
:102990000F91BF90AF909F908F900895E95CDFCF2B
:1029A0000F931F93CF93DF93EC010E947B148C0154
:1029B0006EE074E0CE010E947B14800F911FDF91C6
:1029C000CF911F910F9108950F931F93CF93DF9392
:1029D000EC010E94B7058C016EE074E0CE010E940C
:1029E0007B14800F911FDF91CF911F910F9108955C
:1029F0000C947B14CF92DF92EF92FF920F931F9370
:102A0000CF93DF93EC016A017B01C114D104E1048F
:102A1000F10439F4C12C48E4D42E48EEE42EFF240E
:102A2000F394FE01FF96C082D182E282F38281E2BA
:102A30008DAF80E28EAF369610818FA987FD07C0DB
:102A400061E00E94150561E08FA90E94E70461E042
:102A500088AD0E94150561E088AD0E94E7048DA94C
:102A6000811182C040E052E16AE770E0C416D506E9
:102A7000E606F70640F476956795579547958F5F7C
:102A80008630A1F787E0212F2C702065982F96952E
:102A9000922B99A3809581708AA3812F90E0B0E05A
:102AA000A0E08BA39CA3ADA3BEA31FB7F894809115
:102AB0003405811127C0E6E3F8E08491E6EDF7E004
:102AC0009491E82FF0E0EE0FFF1FE95DF84FA5911C
:102AD000B491EC91E92321F461E085E30E94E704DD
:102AE00061E085E30E9415058CB580618CBD8CB5D5
:102AF00080648CBD61E084E30E94150561E083E39E
:102B00000E941505809134058F5F809334051FBFA7
:102B10008EA987FD75C061E00E94150561E08EA950
:102B20000E94E70464E670E080E090E00E94760591
:102B300060E08EA90E94E70464E670E080E090E027
:102B40000E94760561E08EA90E94E70468EC70E0BF
:102B500080E090E0DF91CF911F910F91FF90EF9077
:102B6000DF90CF900C94760501E018E0F12C8130D5
:102B7000B9F461E08AA50E94150560E08AA50E946B
:102B8000E70461E08CA50E94150560E08CA50E9419
:102B9000E7048BA587FDBCCF60E00E941505B8CF88
:102BA000F8018491E82FF0E0EE0FFF1FE957F84F8E
:102BB000859194912F8D38A12817390741F461E050
:102BC0008F2D0E94150560E08F2D0E94E704F3947D
:102BD0000F5F1F4FF6E4FF12E3CF61E08EA50E9466
:102BE000150561E08EA50E94E7048FA587FD90CFB3
:102BF00061E00E94150561E08FA50E94E70488CF7F
:102C0000DF91CF911F910F91FF90EF90DF90CF90C8
:102C10000895EF92FF920F931F93CF93DF9382E07B
:102C20008093C4068093C5061092C1061092C00618
:102C30008FEF97E09093C3068093C2068BE090E0FD
:102C40009093BD068093BC06C2E2D0E0D093BF064D
:102C5000C093BE0680914B058F9380914A058F9358
:102C600081E194E09F938F9385E395E09F938F9309
:102C70000E94723265E375E080EB96E00E94F814E2
:102C800080E590E09093BD068093BC06D093BF068C
:102C9000C093BE0666E174E080EB96E00E94F814F3
:102CA0002091B8063091B9060FEF1FEF46E350E0D0
:102CB00070E060E080EB96E00E94B10A0F900F9008
:102CC0000F900F900F900F909091520580914805B2
:102CD000992309F469C1882379F1E12C48EFF42E96
:102CE00004E110E020E830E04AE350E070E060E00A
:102CF00080EB96E00E94AA09109248058FEF9FEFA3
:102D00009093C1068093C00680E098EF9093C3062D
:102D10008093C20681E190E09093BD068093BC064B
:102D20008CE390E09093BF068093BE066AE174E066
:102D300080EB96E00E94F8142091B8063091B90615
:102D40000FEF1FEF42E550E070E060E080EB96E0AF
:102D50000E94B10A80914705882399F1809144052A
:102D6000882379F1E12C28EFF22E04E110E020E82D
:102D700030E046E550E070E060E080EB96E00E94D5
:102D8000AA0980EE97E09093C1068093C00680E088
:102D900098EF9093C3068093C2068AE090E09093E8
:102DA000BD068093BC0688E590E09093BF068093B3
:102DB000BE066CE274E080EB96E00E94F81410927C
:102DC000440580914305882399F18091400588232B
:102DD00079F1E12C98EFF92E04E110E020E830E0E1
:102DE00046E550E070E060E080EB96E00E94AA09C2
:102DF00080EE97E09093C1068093C00680E098EF44
:102E00009093C3068093C20685E090E09093BD0640
:102E10008093BC0688E590E09093BF068093BE0641
:102E200066E374E080EB96E00E94F814109240058F
:102E30008091470581113AC080914305811136C0C8
:102E400080914005811104C080914405882371F16F
:102E500080EEE82E87E0F82E04E110E020E830E074
:102E600046E550E070E060E080EB96E00E94AA0941
:102E70001092C1061092C00680EE97E09093C306B0
:102E80008093C2068AE090E09093BD068093BC06D2
:102E900088E590E09093BF068093BE0661E474E0FD
:102EA00080EB96E00E94F8141092400580913D0559
:102EB000882309F472C02091B8063091B9060FEF4B
:102EC0001FEF4DE650E070E060E080EB96E00E947E
:102ED000B10A81E08093C4068093C5068FEF9FEF0F
:102EE0009093C1068093C0061092C3061092C2064A
:102EF000C2E0D0E0D093BD06C093BC0606E710E068
:102F00001093BF060093BE066BE474E080EB96E07E
:102F10000E94F814D093BD06C093BC061093BF0660
:102F20000093BE066DE277E080EB96E00E94B70565
:102F3000D093BD06C093BC060FE710E01093BF0608
:102F40000093BE066BE474E080EB96E00E94F814F8
:102F5000D093BD06C093BC061093BF060093BE0677
:102F600067E277E080EB96E00E94B705D093BD065C
:102F7000C093BC0688E890E09093BF068093BE069D
:102F80006BE474E080EB96E00E94F81482E080939A
:102F9000C4068093C50610923D05DF91CF911F9125
:102FA0000F91FF90EF900895882309F4C5CE30EE7D
:102FB000E32E37E0F32E04E110E020E830E04AE3AE
:102FC00050E070E060E080EB96E00E94AA09109269
:102FD00048051092C1061092C00680EE97E09093CB
:102FE000C3068093C20682E190E09093BD06809371
:102FF000BC068CE390E09093BF068093BE0663E22C
:1030000074E096CE0E944532FC0180819181009748
:1030100011F00C947F2D60E070E0CB010895FC016D
:1030200024813581232B39F421E0FB018081882321
:1030300049F020E007C0808191810E94533221E055
:10304000892BB9F7822F08950F931F93CF93DF93A6
:103050008C01EB01FC01808191810097E1F0688196
:10306000798161157105A9F0428153812C813D81DF
:103070004217530770F00E945C328C819D81F801E9
:10308000958384831D821C82DF91CF911F910F91C4
:1030900008950E94DB3088819981F80191838083B3
:1030A0008A819B81938382838C819D819583848394
:1030B000198218821B821A82E5CFCF93DF93EC012D
:1030C00088819981009711F00E94DB301982188263
:1030D0001D821C821B821A82DF91CF910895FC0110
:1030E00080819181009711F00C94DB3008950F934B
:1030F0001F93CF93DF93EC0188819981009759F05A
:103100002A813B812617370730F081E0DF91CF918C
:103110001F910F9108958B016F5F7F4F0E94643163
:10312000009759F0998388831B830A832C813D8102
:10313000232B59F7FC011082E8CF80E0E7CFEF9214
:10314000FF920F931F93CF93DF936115710541F4A5
:1031500080E0DF91CF911F910F91FF90EF90089544
:1031600041155105B1F07B01EC010C811D81040F6B
:10317000151FB8010E947718882351F328813981DF
:103180008C819D81B701820F931F0E945C321D8349
:103190000C8381E0DECF0F931F93CF93DF9300D09A
:1031A00000D01F921F92CDB7DEB74AE08E010F5FAD
:1031B0001F4FB8010E94D12DF80101900020E9F7BE
:1031C0003197AF01401B510BB8018DEF96E00E9483
:1031D0009F1828960FB6F894DEBF0FBECDBFDF91C3
:1031E000CF911F910F9108950F931F93CF93DF936A
:1031F00000D000D01F92CDB7DEB74AE08E010F5F3E
:103200001F4FB8010E941B2EF80101900020E9F722
:103210003197AF01401B510BB8018DEF96E00E9432
:103220009F1827960FB6F894DEBF0FBECDBFDF9173
:10323000CF911F910F910895CF93DF93EC0142E05E
:1032400050E060E674E00E949F18811103C0CE0137
:103250000E945D18CE01DF91CF910895EF92FF9209
:103260000F931F93CF93DF93CDB7DEB72D970FB694
:10327000F894DEBF0FBECDBF7C01CB01BA012AE0BE
:103280008E010F5F1F4FA8010E94F92DF8010190D8
:103290000020E9F73197AF01401B510BB801C7017E
:1032A0000E949F182D960FB6F894DEBF0FBECDBFBB
:1032B000DF91CF911F910F91FF90EF900895FB0147
:1032C00001900020E9F73197AF01461B570B0C9492
:1032D0009F180F931F93CF93DF931F921F92CDB729
:1032E000DEB701E080E695E00E942306892BA9F075
:1032F00080E695E00E940106182F89831A8241E03A
:1033000050E0BE016F5F7F4F83E097E00E949F18FF
:10331000133241F700933E05E5CF0F900F90DF91F8
:10332000CF911F910F9108950F931F93CF93DF9328
:103330001F921F92CDB7DEB701E08DEF95E00E949E
:103340002306892BA9F08DEF95E00E940106182F26
:1033500089831A8241E050E0BE016F5F7F4F89E0B0
:1033600097E00E949F18133241F700933F05E5CF85
:103370000F900F90DF91CF911F910F9108950E94B0
:10338000390681110E9494190E942F0681110E9412
:10339000691980E090E0892B49F080E090E0892B6A
:1033A00029F00E94000081110E94000080E090E05E
:1033B000892B49F080E090E0892B29F00E940000E1
:1033C00081110C9400000895EF92FF920F931F93C8
:1033D000CF93DF93EC017B018A01BA010E94771839
:1033E00081110BC0CE010E945D18CE01DF91CF91FB
:1033F0001F910F91FF90EF9008951D830C83B701EB
:10340000888199810E945C32F0CFFB0101900020FD
:10341000E9F73197AF01461B570B0C94E4190F9352
:103420001F93CF93DF93CDB7DEB7A1970FB6F89474
:10343000DEBF0FBECDBF8C01CB01BA01F8011182F6
:10344000108213821282158214822AE0AE014F5F2D
:103450005F4F0E94F92DBE016F5F7F4FC8010E9430
:10346000051AA1960FB6F894DEBF0FBECDBFDF914F
:10347000CF911F910F910895CF93DF93EC016115C8
:10348000710531F00E94051ACE01DF91CF910895A8
:103490000E945D18F9CFFB01DC0111961C921E926F
:1034A00013961C921E92129715961C921E921497B8
:1034B0008617970749F0608171816115710521F0C8
:1034C000448155810C94E4190895FC011182108205
:1034D0001382128215821482FB0101900020E9F709
:1034E0003197AF01461B570B0C94E419AF92BF9272
:1034F000CF92DF92EF92FF920F931F93CF93DF93C0
:103500006C018B017A0159012417350730F483E0EF
:10351000A82EB12C92E0E92EF12C60E174E0C601F6
:103520000E94651AD8011496CD91DC91EC16FD0627
:10353000C8F4AC16BD0608F4E501D801ED91FC9184
:103540001197EC0FFD1FB08010826D917C916E0D74
:103550007F1DC6010E943C1AF80180819181C80F2D
:10356000D91FB882C601DF91CF911F910F91FF90B3
:10357000EF90DF90CF90BF90AF9008952F923F9241
:103580004F925F926F927F928F929F92AF92BF9273
:10359000CF92DF92EF92FF920F931F93CF93DF931F
:1035A000CDB7DEB72E970FB6F894DEBF0FBECDBFF6
:1035B0007C012DB63EB6109252058CE290E09E87BB
:1035C0008D87D7011496AD90BC9023E030E050E099
:1035D00040E0B701CE0107960E94761A23E030E062
:1035E00050E040E0B701CE0101960E94761ACE016C
:1035F00001960E9404182B014B01CE0101960E94F6
:103600006F18820101501109EDB7FEB7E01BF10BF5
:103610000FB6F894FEBF0FBEEDBF2DB73EB72F5FBC
:103620003F4F39018DB79EB78A199B090FB6F894A1
:103630009EBF0FBE8DBFADB7BEB711966D01A50180
:10364000BD01C7010E945514BE01635F7F4FC601D3
:103650000E94A62DF12CE12C0097C1F0E114F10499
:1036600051F08E149F043CF00E94612DF7013197B8
:10367000E60DF71D8083BFEFEB1AFB0ABE01635F07
:103680007F4F90E080E00E94A62DE6CFE6E0F2E0DA
:1036900080E991E0DF019C011D9221503040E1F76B
:1036A000F301A6E0B2E0CD01865092408017910769
:1036B00018F481918D93F7CF1093050200930402C3
:1036C000609104027091050290E080E00E94452E16
:1036D00020E030E040EF52E40E949E2F6093A1036F
:1036E0007093A2038093A3039093A4038091040298
:1036F000909105029093AD038093AC038091A10358
:103700009091A203A091A303B091A4038093A80376
:103710009093A903A093AA03B093AB0386E092E031
:103720009093A7038093A603109231051092300561
:103730006CE271E080E090E00E94760566E970E05E
:1037400080E090E00E948F13CE0107960E946F18D0
:103750000FB6F8943EBE0FBE2DBE2E960FB6F8944F
:10376000DEBF0FBECDBFDF91CF911F910F91FF90B4
:10377000EF90DF90CF90BF90AF909F908F907F9011
:103780006F905F904F903F902F900895FF920F930E
:103790001F93CF93DF938C01EB01F8800E94402FA1
:1037A000F81621F06F2DC8010E94482FCE01DF913D
:1037B000CF911F910F91FF900895AF92BF92CF923A
:1037C000DF92EF92FF920F931F93CF93DF931F929D
:1037D000CDB7DEB76B01FB01A480B58010E000E03F
:1037E000E82E880FFF080A151B05D4F4F601848122
:1037F00095810817190728F4608171816115710599
:1038000061F410922F056FE275E0C701800F911FE0
:103810000E94C61B0F5F1F4FE6CF600F711FF5CFD1
:103820001982BE016F5F7F4FC7018A0D9B1D0E94E9
:10383000C61B0F90DF91CF911F910F91FF90EF90DA
:10384000DF90CF90BF90AF900895FF920F931F939A
:10385000CF93DF93EC018B01FB01F0800E94402F9E
:10386000F81621F06F2DCE010E94482FF801F1804B
:103870002196CE010E94402FF81621F06F2DCE0127
:103880000E94482FC801DF91CF911F910F91FF90A7
:103890000895AF92BF92CF92DF92EF92FF920F9373
:1038A0001F93CF93DF93CDB7DEB72C970FB6F89465
:1038B000DEBF0FBECDBF8C01CDB6DEB68CE290E090
:1038C00098878F83F801A480B58025E030E042E03E
:1038D00050E0B801CE0101960E94761ACE01019601
:1038E0000E9404187A876987CE0101960E946F189A
:1038F0008DB79EB78A199B090FB6F8949EBF0FBE6D
:103900008DBFEDB7FEB731967F01A501BF01C8019C
:103910000E945514BE01695F7F4FC7010E94A62D0A
:103920007C010BEF10E0A12CBB24B394BA82A982D6
:10393000BE016F5F7F4F87E590E00E94251C01501C
:103940001109A1F7BE01675F7F4F87E590E00E94F4
:10395000251C89859A859B878C87BE01655F7F4F73
:1039600088EE93E00E94C61BBE01645F7F4F89EE24
:1039700093E00E94C61B10E000E0E114F10401F1A5
:103980000115110591F089859A850817190768F4C2
:10399000C7010E94612D9A838983BE016F5F7F4FAB
:1039A000C801885A9F4F0E94251C0F5F1F4FBE0100
:1039B000695F7F4F90E080E00E94A62D7C01DDCF03
:1039C0000FB6F894DEBE0FBECDBE2C960FB6F8949F
:1039D000DEBF0FBECDBFDF91CF911F910F91FF9042
:1039E000EF90DF90CF90BF90AF9008950C94402F50
:1039F000AF92BF92CF92DF92EF92FF920F931F93FD
:103A0000CF93DF93CDB7DEB7C456D1090FB6F89484
:103A1000DEBF0FBECDBF6C01062F660F110BC801B4
:103A20000E94F61C9E012F5F3F4F79015901021B36
:103A3000130BF501EE19FF09882349F0C8018A0D1F
:103A40009B1D0E94402FF50181935F01F2CFEE0D87
:103A5000FF1D1082B701C6010E94651AC601CC592C
:103A6000DF4F0FB6F894DEBF0FBECDBFDF91CF9111
:103A70001F910F91FF90EF90DF90CF90BF90AF908C
:103A800008951F920F920FB60F9211242F933F9318
:103A90008F939F93AF93BF93809158059091590551
:103AA000A0915A05B0915B053091570523E0230F93
:103AB0002D3758F50196A11DB11D20935705809310
:103AC000580590935905A0935A05B0935B058091D2
:103AD0005C0590915D05A0915E05B0915F05019632
:103AE000A11DB11D80935C0590935D05A0935E05BB
:103AF000B0935F05BF91AF919F918F913F912F91AF
:103B00000F900FBE0F901F90189526E8230F029676
:103B1000A11DB11DD2CF1F920F920FB60F9211248B
:103B20000BB60F922F933F934F935F936F937F93B7
:103B30008F939F93AF93BF93EF93FF93E091BC0359
:103B4000F091BD031995FF91EF91BF91AF919F91B6
:103B50008F917F916F915F914F913F912F910F9036
:103B60000BBE0F900FBE0F901F9018951F920F92D3
:103B70000FB60F9211240BB60F922F933F934F93D2
:103B80005F936F937F938F939F93AF93BF93EF93C5
:103B9000FF93E091BA03F091BB031995FF91EF9168
:103BA000BF91AF919F918F917F916F915F914F9155
:103BB0003F912F910F900BBE0F900FBE0F901F9053
:103BC00018951F920F920FB60F9211240BB60F92F9
:103BD0002F933F934F935F936F937F938F939F9315
:103BE000AF93BF93EF93FF93E091B003F091B103D4
:103BF0001995FF91EF91BF91AF919F918F917F9117
:103C00006F915F914F913F912F910F900BBE0F904D
:103C10000FBE0F901F9018951F920F920FB60F9224
:103C200011240BB60F922F933F934F935F936F9393
:103C30007F938F939F93AF93BF93EF93FF93E09105
:103C4000AE03F091AF031995FF91EF91BF91AF9142
:103C50009F918F917F916F915F914F913F912F91A4
:103C60000F900BBE0F900FBE0F901F9018951F92D4
:103C70000F920FB60F9211240BB60F922F933F9312
:103C80004F935F936F937F938F939F93AF93BF9364
:103C9000EF93FF93E091B803F091B9031995FF9169
:103CA000EF91BF91AF919F918F917F916F915F91B4
:103CB0004F913F912F910F900BBE0F900FBE0F9021
:103CC0001F9018951F920F920FB60F9211240BB6EA
:103CD0000F922F933F934F935F936F937F938F93A5
:103CE0009F93AF93BF93EF93FF93E091B603F0914F
:103CF000B7031995FF91EF91BF91AF919F918F916C
:103D00007F916F915F914F913F912F910F900BBEDB
:103D10000F900FBE0F901F9018951F920F920FB625
:103D20000F9211240BB60F922F933F934F935F93F3
:103D30006F937F938F939F93AF93BF93EF93FF9373
:103D4000E091B403F091B5031995FF91EF91BF9104
:103D5000AF919F918F917F916F915F914F913F9123
:103D60002F910F900BBE0F900FBE0F901F901895C4
:103D70001F920F920FB60F9211240BB60F922F9332
:103D80003F934F935F936F937F938F939F93AF93E3
:103D9000BF93EF93FF93E091B203F091B3031995B2
:103DA000FF91EF91BF91AF919F918F917F916F9113
:103DB0005F914F913F912F910F900BBE0F900FBECF
:103DC0000F901F9018951F920F920FB60F9211240B
:103DD0000BB60F922F933F934F935F936F937F9305
:103DE0008F939F93AF93BF93EF93FF9380E695E0FC
:103DF0000E944306FF91EF91BF91AF919F918F91E8
:103E00007F916F915F914F913F912F910F900BBEDA
:103E10000F900FBE0F901F9018951F920F920FB624
:103E20000F9211240BB60F922F938F939F93EF93C2
:103E3000FF93E0917005F09171058081E091760526
:103E4000F091770582FD1DC09081809179058F5F8B
:103E50008F7320917A05821741F0E0917905F0E0A7
:103E6000E05AFA4F958F80937905FF91EF919F91DA
:103E70008F912F910F900BBE0F900FBE0F901F9040
:103E800018958081F2CF1F920F920FB60F921124D6
:103E90000BB60F922F933F934F935F936F937F9344
:103EA0008F939F93AF93BF93EF93FF938DEF95E025
:103EB0000E944306FF91EF91BF91AF919F918F9127
:103EC0007F916F915F914F913F912F910F900BBE1A
:103ED0000F900FBE0F901F9018951F920F920FB664
:103EE0000F9211240BB60F922F938F939F93EF9302
:103EF000FF93E0910D06F0910E068081E09113068C
:103F0000F091140682FD1DC09081809116068F5F8E
:103F10008F7320911706821741F0E0911606F0E0AA
:103F2000E350FA4F958F80931606FF91EF919F9182
:103F30008F912F910F900BBE0F900FBE0F901F907F
:103F400018958081F2CF1F920F920FB60F92112415
:103F50000BB60F922F933F938F939F93EF93FF9303
:103F600080915205882309F452C0E091A603F09194
:103F7000A7038091300590913105E80FF91F8081EA
:103F80008295807F82B980910302882309F441C021
:103F90008091300590913105019690933105809381
:103FA00030052091AC033091AD03809130059091A4
:103FB00031052817390721F4109231051092300588
:103FC00080913205882371F080918100887F8093F1
:103FD00081009091330580918100892B809381002D
:103FE00010923205809196039091970390938900E7
:103FF00080938800FF91EF919F918F913F912F9136
:104000000F900BBE0F900FBE0F901F90189512B817
:10401000BACF8091300590913105892B41F4809180
:10402000AC039091AD03909331058093300580915E
:1040300030059091310501979093310580933005BB
:10404000BFCFCF93DF93109263051092620548EEC5
:1040500053E060E070E04093640550936505609321
:1040600066057093670588EC93E0909361058093F3
:1040700060052DEC30E030936D0520936C052CEC41
:1040800030E030936F0520936E0528EC30E03093DC
:1040900071052093700529EC30E03093730520936F
:1040A00072052AEC30E030937505209374052EECF0
:1040B00030E03093770520937605109279051092C1
:1040C0007A0510927B0510927C05109200061092E2
:1040D000FF05409301065093020660930306709318
:1040E00004069093FE058093FD0585EC90E0909387
:1040F0000A068093090684EC90E090930C06809366
:104100000B0680EC90E090930E0680930D0681ECF8
:1041100090E09093100680930F0682EC90E09093CD
:1041200012068093110686EC90E09093140680931B
:104130001306109216061092170610921806109287
:104140001906AAE9B6E090E080E021E2E1E0F0E0C3
:104150008630910510F4F0E0E0E0AC01425F5F4F83
:10416000E40FF51F20935700E491ED9301968930F9
:10417000910561F783E694E08093A5038091A10304
:104180009091A203A091A303B091A4038093A803EC
:104190009093A903A093AA03B093AB0382E190E0AC
:1041A0000E943F30FC0112821382148215828AE041
:1041B00090E09783868310868AE094E091838083E1
:1041C000118AF0935A07E093590762E082E00E9457
:1041D000150562E083E00E941505E3E0F8E0E49154
:1041E000F0E0EE0FFF1FE951F84FA591B491B093A5
:1041F0004E07A0934D07E3EAF7E04491409351073F
:10420000E4E0F8E0E491F0E0EE0FFF1FE951F84F31
:10421000C591D491D0935007C0934F07E4EAF7E0DB
:10422000E491E093520710925407109255071092B0
:104230005607109257072BE33FE1C9010197F1F7A9
:104240009C91842F892391E009F490E08881E823F0
:1042500009F092602DE437E0909353073093A40661
:104260002093A30681E394E19093AF038093AE0380
:1042700080916A008C7F816080936A00EC9AC1E033
:10428000C09358073093A6062093A50687E394E1D0
:104290009093B1038093B00380916A00837F846020
:1042A00080936A00ED9A82E0809358070E94A905E6
:1042B0006093490770934A0780934B0790934C078C
:1042C0000E94A905609345077093460780934707AE
:1042D0009093480768E674E08FE397E00E94651AC0
:1042E00060E174E089E397E00E94651A60E174E0A0
:1042F00083E397E00E94651A60E174E08DE297E045
:104300000E94651A60E174E087E297E00E94651AF6
:1043100060E174E081E297E00E94651A60E174E078
:104320008BE197E00E94651A60E174E085E197E017
:104330000E94651A60E174E08FE097E00E94651AC0
:1043400060E174E089E097E00E94651A60E174E042
:1043500083E097E00E94651A60E174E08DEF96E0DB
:104360000E94651A60E174E087EF96E00E94651A8A
:104370001092B3061092B20620E830E03093B506F2
:104380002093B40680EA90E09093B7068093B60637
:104390003093B9062093B8069093BB068093BA0673
:1043A0001092C6061092BD061092BC061092BF066F
:1043B0001092BE06C093C506C093C4068FEF9FEF50
:1043C0009093C3068093C2069093C1068093C00663
:1043D000C093C7061092C8061092CA061092C9066A
:1043E0001092E5068EE28093E6068AE28093E70665
:1043F0008CE28093E8061092EA061092E906109289
:10440000EC061092EB061092ED061092EE0610925A
:10441000EF061092F0061092F1061092F2068FEA63
:1044200096E09093D0068093CF06EDE2F8E0E49119
:10443000F0E0EE0FFF1FE957F84F859194919093AC
:10444000CE068093CD06EDECF7E084918093E306F1
:10445000EBE2F8E0E491F0E0EE0FFF1FE957F84FD0
:10446000259134913093CC062093CB06EBECF7E00A
:10447000E491E093E106E095E093E206E82FE09511
:10448000E093E4061092F3061092F4061092F506FB
:104490008AED93E09093B1068093B006DF91CF91BF
:1044A0000895CF93DF93CDB7DEB762970FB6F89438
:1044B000DEBF0FBECDBF789484B5826084BD84B565
:1044C000816084BD85B5826085BD85B5816085BD0F
:1044D00080916E00816080936E00109281008091C7
:1044E000810082608093810080918100816080934F
:1044F0008100809180008160809380008091B10074
:1045000084608093B1008091B00081608093B0009E
:1045100080919100826080939100809191008160F0
:1045200080939100809190008160809390008091B1
:10453000A10082608093A1008091A100816080939E
:10454000A1008091A00081608093A0008091210152
:1045500082608093210180912101816080932101FB
:104560008091200181608093200180917A00846095
:1045700080937A0080917A00826080937A008091A3
:104580007A00816080937A0080917A0080688093BD
:104590007A001092C1008DEF95E00E94590480E6E8
:1045A00095E00E94590460E0CE0107960E94F81C35
:1045B00060E0CE0101960E94F81CBE016F5F7F4F44
:1045C000CE0107960E942418CE0101960E946F1812
:1045D0006AE0CE0101960E94F81CBE016F5F7F4F1A
:1045E00089E397E00E942418CE0101960E946F187B
:1045F0006EE1CE0101960E94F81CBE016F5F7F4FF5
:1046000083E397E00E942418CE0101960E946F1860
:1046100068E2CE0101960E94F81CBE016F5F7F4FD9
:104620008DE297E00E942418CE0101960E946F1837
:104630006EE3CE0101960E94F81CBE016F5F7F4FB2
:1046400087E297E00E942418CE0101960E946F181D
:1046500062E774E08DEF95E00E94F81468E973E07A
:104660008DEF95E00E94F8146CE874E08DEF95E012
:104670000E94F81403EA16E0BAE92B2EB6E03B2EAE
:10468000D1016D911D0170E090E080E040E10E9459
:104690008A1402151305A1F76EEA74E08DEF95E018
:1046A0000E94F81469E377E08DEF95E00E94B7056A
:1046B0006EEA74E08DEF95E00E94F81463E377E012
:1046C0008DEF95E00E94B70567E974E08DEF95E006
:1046D0000E94F8146DE277E08DEF95E00E94B70537
:1046E00067E974E08DEF95E00E94F81467E277E0E7
:1046F0008DEF95E00E94B70567E974E08DEF95E0D6
:104700000E94F81487E590E00E94F61CE82E88E5E8
:1047100090E00E94F61C90E0982F8827E80EF92E72
:10472000F11C60E174E08DEF96E00E94051AC7016C
:104730000E94F4186EEA74E08DEF96E00E945F1913
:1047400010E000E00E151F0589F0C801875A9F4F41
:104750000E94F61C90E00E94CB186EEA74E08DEF88
:1047600096E00E945F190F5F1F4FECCFF8941092F4
:10477000800010928100109285001092840088E8D9
:1047800093E19093890080938800809181008860F4
:10479000809381008091810081608093810080916D
:1047A0006F00826080936F00789461E086E10E94E0
:1047B000150561E087E10E94150561E088E10E942E
:1047C000150561E089E10E94150561E08AE10E941A
:1047D000150561E08BE10E94150561E08CE10E9406
:1047E000150561E08DE10E94150561E08DE00E94F4
:1047F000150561E08EE10E94150561E08FE10E94E0
:1048000015050091590710915A07D801ED91FC91B7
:104810000280F381E02D42E050E065E070E0C801E5
:10482000199585E0F801818B10860190F081E02DCB
:104830000190F081E02DC8011995882339F0D80145
:1048400018968C911897836018968C930E94A905EE
:10485000F8016283738384839583E0915907F09113
:104860005A0789E190E0978386836DEF76E0CE0169
:1048700001960E944B1ACE0101960E94BE1ACE01EB
:1048800001960E946F1840E050E0BA0180EB96E07C
:104890000E94FA148CEE96E00E94500C8FED96E088
:1048A0000E94500C84EB96E00E94500C80EC8983AF
:1048B000BE016F5F7F4F80EB96E00E94E70C22E025
:1048C000522E5092F60660E080EB96E00E94570D63
:1048D00060E080EB96E00E94570D61E088E20E9464
:1048E000150561E088E20E94E70470E060E080EB7B
:1048F00096E00E94DC11442443944092C406409206
:10490000C506AA24AA94BA2CB092C306A092C206E5
:10491000B092C106A092C00642E1842E912C9092E2
:10492000BD068092BC0652E0C52ED12CD092BF06A7
:10493000C092BE066AE974E080EB96E00E94D01453
:104940002091B8063091B9060FEF1FEF4BE050E011
:1049500070E060E080EB96E00E94B10A88E290E0AF
:104960009093BD068093BC0680E190E09093BF06D3
:104970008093BE0669E377E080EB96E00E94E41442
:104980002091B8063091B90649E150E070E060E04E
:1049900080EB96E00E94B10AEE24EA9467E0F62EDE
:1049A00004E110E020E830E04EE150E070E060E02B
:1049B00080EB96E00E94AA091092C1061092C006F0
:1049C0008FEF97E09093C3068093C2065092C4067F
:1049D0005092C5068BE090E09093BD068093BC0694
:1049E00002E210E01093BF060093BE0680914B05D3
:1049F0008F9380914A058F9381E194E09F938F93E9
:104A000085E395E09F938F930E94723265E375E092
:104A100080EB96E00E94F81480E590E09093BD064C
:104A20008093BC061093BF060093BE0666E174E057
:104A300080EB96E00E94F8142091B8063091B906F8
:104A40000FEF1FEF46E350E070E060E080EB96E090
:104A50000E94B10A70EEE72E77E0F72E04E110E035
:104A600020E830E04AE350E070E060E080EB96E060
:104A70000E94AA091092C1061092C006E0EE6E2EA6
:104A8000E7E07E2E7092C3066092C2069092BD0649
:104A90008092BC068CE390E09093BF068093BE06A4
:104AA00063E274E080EB96E00E94F8142091B8066F
:104AB0003091B9060FEF1FEF42E550E070E060E083
:104AC00080EB96E00E94B10A04E110E020E830E0BB
:104AD00046E550E070E060E080EB96E00E94AA09B5
:104AE0001092C1061092C0067092C3066092C20670
:104AF0008AE090E09093BD068093BC0688E590E044
:104B00009093BF068093BE0661E474E080EB96E06C
:104B10000E94F8142091B8063091B9060FEF1FEFEC
:104B20004DE650E070E060E080EB96E00E94B10A54
:104B30004092C4064092C506B092C106A092C0063B
:104B40001092C3061092C206D092BD06C092BC0657
:104B500086E790E09093BF068093BE066DE277E013
:104B600080EB96E00E94B705D092BD06C092BC06CD
:104B70008FE790E09093BF068093BE0667E277E0F0
:104B800080EB96E00E94B7055092C4065092C5068D
:104B900068EE73E080E090E00E947605CE01079613
:104BA0000E946F180F900F900F900F900F900F9022
:104BB00011E002E0F2E38F2E912CA12CB12C809118
:104BC0005807823008F088C4F8948DE497E00E947A
:104BD000EF13C0905407D0905507E0905607F0901F
:104BE00057077894C0925305D0925405E09255052A
:104BF000F092560580915205882309F42EC10E9437
:104C0000A9052091450730914607409147075091EB
:104C10004807621B730B840B950B65367105810584
:104C2000910508F41AC10E94A90560934507709385
:104C30004607809347079093480780914E059091CF
:104C40004F05A0915005B09151058C159D05AE05FD
:104C5000BF0509F402C1C816D906EA06FB060CF026
:104C600069C01092520580914A0590914B05A09120
:104C70004C05B0914D05883EF3E09F07A105B105B5
:104C800008F02CC44496A11DB11D80934A05909351
:104C90004B05A0934C05B0934D0580914A0590912A
:104CA0004B05A0914C05B0914D05803E9E42A1055B
:104CB000B10560F080EE9EE2A0E0B0E080934A058E
:104CC00090934B05A0934C05B0934D05C0904A05B9
:104CD000D0904B05E0904C05F0904D05C701B60112
:104CE0000E948F136BEA74E0CE0101960E94651A50
:104CF000B701A601CE0101960E942E1960E674E06C
:104D0000CE0101960E945F19BE016F5F7F4F80E662
:104D100095E00E94B705BE016F5F7F4F8DEF95E074
:104D20000E94E414109352050E940916CE010196C8
:104D30000E946F1840914E0550914F0560915005AB
:104D4000709151058091530590915405A09155059E
:104D5000B0915605481759076A077B070CF06DC0DC
:104D60001092520580914A0590914B05A0914C05F7
:104D7000B0914D05883EE3E09E07A105B10508F01E
:104D8000B2C34497A109B10980934A0590934B059A
:104D9000A0934C05B0934D0580914A0590914B0529
:104DA000A0914C05B0914D050197A109B1098F3D26
:104DB0009E42A105B10568F094E1492E512C612C69
:104DC000712C40924A0550924B0560924C057092AE
:104DD0004D05C0904A05D0904B05E0904C05F090F1
:104DE0004D05C701B6010E948F136BEA74E0CE0136
:104DF00001960E94651AB701A601CE0101960E9494
:104E00002E1960E674E0CE0101960E945F19BE0182
:104E10006F5F7F4F80E695E00E94B705BE016F5F30
:104E20007F4F8DEF95E00E94E414109352050E948D
:104E30000916CE0101960E946F188091530590913A
:104E40005405A0915505B091560580934E05909359
:104E50004F05A0935005B0935105E0905907F0908D
:104E60005A07D70118968C9118978B7F18968C93B8
:104E70001897ED91FC910190F081E02DC7011995F3
:104E8000D82EF701808586958170D81609F430C335
:104E90000E94A905D70112966D937D938D939C93E3
:104EA000159718968C911897802718968C93E091F7
:104EB0005907F0915A07808580FD66C082FF64C063
:104EC0008091A003882381F01092A00380924A056C
:104ED00090924B05A0924C05B0924D0562E370E0B4
:104EE00080E090E00E948F1360EB74E08DEF95E01E
:104EF0000E94D01480915205812780935205882307
:104F000009F43EC366EB74E08DEF95E00E94D01487
:104F10006CEB74E080E695E00E94F81464E670E0C3
:104F200080E090E00E9476056BEA74E0CE01019685
:104F30000E94651A40914A0550914B0560914C05BD
:104F400070914D05CE0101960E942E1960E674E025
:104F5000CE0101960E945F19BE016F5F7F4F80E610
:104F600095E00E94B705BE016F5F7F4F8DEF95E022
:104F70000E94E414CE0101960E946F181093490517
:104F8000109348050E9409160E94A905C090490780
:104F9000D0904A07E0904B07F0904C076C197D09C0
:104FA0008E099F09613A7F408105910508F465C02B
:104FB0000E94A9056093490770934A0780934B07A5
:104FC00090934C071092490580914705882329F159
:104FD00060E175E08DEF95E00E94D01468EC70E020
:104FE00080E090E00E94760580914505909146050D
:104FF000019690934605809345050A9771F41092A7
:1050000047051093440510934805109246051092E9
:105010004505109252050E94091680914305882388
:1050200009F4BBC26EEC74E08DEF95E00E94D014E1
:1050300068EC70E080E090E00E9476058091410588
:105040009091420501969093420580934105059702
:10505000A1F4109243051093400510934805109257
:105060004205109241051092520568ED74E08DEFF3
:1050700095E00E94D0140E94091680913F0581118D
:1050800005C080913E05882309F4DAC462EE74E01D
:1050900089E097E00E940F18882309F45EC0809190
:1050A000430581115AC066EE74E08DEF95E00E94D1
:1050B000F81468E973E08DEF95E00E94F8146CE84D
:1050C00074E08DEF95E00E94F8148AE9E82E86E0FE
:1050D000F82EF70161917F0170E090E080E040E1FF
:1050E0000E948A142E143F04A1F76EEA74E08DEF3B
:1050F00095E00E94F81469E377E08DEF95E00E9457
:10510000B7056EEA74E08DEF95E00E94F81463E352
:1051100077E08DEF95E00E94B7056EEA74E08DEFC1
:1051200095E00E94F81469E077E08DEF95E00E9429
:10513000B70567E974E08DEF95E00E94D0141093F5
:1051400047051093440560E174E089E097E00E9410
:10515000051A109246051092450564E075E089E055
:1051600097E00E940F18811108C064E075E083E0A9
:1051700097E00E940F18882301F1109247051093C1
:10518000440560E174E089E097E00E94051A1092FE
:1051900046051092450510925205109348058092DD
:1051A0004A0590924B05A0924C05B0924D0562E3E2
:1051B00070E080E090E00E948F1322E030E050E049
:1051C00040E069E077E0CE0101960E94761A6CE03B
:1051D00075E0CE0101960E940F18F82ECE010196BF
:1051E0000E946F18FF2009F44AC080915205812760
:1051F0008093520566EB74E0811102C060EC74E0AC
:105200008DEF95E00E94D0140E94A9056093490794
:1052100070934A0780934B0790934C07109349056E
:1052200080924A0590924B05A0924C05B0924D0594
:1052300062E370E080E090E00E948F1310934805D5
:105240006BEA74E0CE0101960E94651A42E350E0D9
:1052500060E070E0CE0101960E942E1960E674E0D5
:10526000CE0101960E945F19BE016F5F7F4F8DEFE7
:1052700095E00E94E414CE0101960E946F1822E08E
:1052800030E050E040E063E077E0CE0101960E941C
:10529000761A6CE075E0CE0101960E940F18F82E88
:1052A000CE0101960E946F18FF2009F44AC0809138
:1052B00052058127809352056CEB74E0811102C086
:1052C00068EC74E080E695E00E94F8140E94A9055D
:1052D0006093490770934A0780934B0790934C075C
:1052E0001093490580924A0590924B05A0924C0577
:1052F000B0924D0562E370E080E090E00E948F1371
:10530000109348056BEA74E0CE0101960E94651A7D
:1053100042E350E060E070E0CE0101960E942E1959
:1053200060E674E0CE0101960E945F19BE016F5FD6
:105330007F4F80E695E00E94E414CE0101960E9422
:105340006F1825E030E050E040E063E077E0CE0108
:1053500001960E94761A6FE075E0CE0101960E94D8
:105360000F18F82ECE0101960E946F18FF2051F100
:105370001092420510924105809147058823A1F0C3
:105380001092470510934405109348051092460566
:1053900010924505109252050E9409166EEC74E0B9
:1053A0008DEF95E00E94D0148091430581110AC0D1
:1053B000109343051093400568ED74E08DEF95E080
:1053C0000E94D01424E030E050E040E069E077E053
:1053D000CE0101960E94761A60E175E0CE01019639
:1053E0000E940F18F82ECE0101960E946F18FF2020
:1053F00021F0109246051092450522E030E050E081
:1054000040E069E077E0CE0101960E94761A65E1FE
:1054100075E0CE0101960E940F18F82ECE0101967C
:105420000E946F18FF2009F4DFC010934905109205
:10543000520580924A0590924B05A0924C05B0927D
:105440004D051093480569E077E0CE0101960E9472
:105450004B1ACE0101960E94491CCE0101960E9472
:105460006F1825E030E042E050E069E077E0CE01DF
:1054700001960E94761ACE0101960E9404186B01D3
:105480003B01CE0101960E946F1860E174E08DEF40
:1054900096E00E94051AC6010E94F4186EEA74E0B4
:1054A0008DEF96E00E945F19F12CE12CE614F704D1
:1054B00008F080C0C701875A9F4F0E94F61C90E0F9
:1054C0000E94CB186EEA74E08DEF96E00E945F199F
:1054D000FFEFEF1AFF0AEACFF8947BCB8A569F4F73
:1054E000AF4FBF4FD2CB86599109A109B1094CCC1E
:1054F0000E94A905D70112964D905D906D907C9009
:1055000015979B01AC0124193509460957091696D0
:105510008D919C91B0E0A0E0281739074A075B07FE
:1055200008F4C5CCD70118968C918170D81609F46F
:10553000BECC0E94A905F70162837383848395839F
:1055400080858127846080870E94A905D7011996EC
:105550002D913D914D915C911C97621B730B840BB7
:10556000950BF701658776878787908B0E94A90541
:10557000D70119966D937D938D939C931C9797CC2F
:1055800060EC74E08DEF95E00E94D01468EC74E05C
:1055900080E695E00E94F814C7CC62EE74E080E6E5
:1055A00095E00E94F81468EC70E080E090E00E94C2
:1055B000760563CD6EEA74E08DEF96E00E945F1988
:1055C0006DEF76E0CE0101960E944B1ACE01019656
:1055D0000E94BE1ACE0101960E946F1860EC74E022
:1055E0008DEF95E00E94D01422E030E050E040E0E2
:1055F00063E077E0CE0101960E94761A65E175E0DE
:10560000CE0101960E940F18F82ECE0101960E943D
:105610006F18FF2009F47CC00E94A9056093490718
:1056200070934A0780934B0790934C07109349055A
:105630001092520564EF71E080E090E00E947605E0
:1056400068EC74E080E695E00E94F81480924A05C8
:1056500090924B05A0924C05B0924D0510934805D1
:1056600063E077E0CE0101960E944B1ACE010196CD
:105670000E94491CCE0101960E946F1825E030E07F
:1056800042E050E063E077E0CE0101960E94761A96
:10569000CE0101960E9404186B01CE0101960E9472
:1056A0006F1860E174E08DEF96E00E94051AF12C0E
:1056B000E12CEC14FD0490F4C701875A9F4F0E941F
:1056C000F61C90E00E94CB186EEA74E08DEF96E035
:1056D0000E945F192FEFE21AF20AEBCF6EEA74E034
:1056E0008DEF96E00E945F196DEF76E0CE01019696
:1056F0000E944B1ACE0101960E94BE1ACE0101965D
:105700000E946F1860EC74E08DEF95E00E94F81431
:1057100023E030E050E040E069E077E0CE01019620
:105720000E94761A68E175E0CE0101960E940F187A
:10573000F82ECE0101960E946F18FF2009F464C074
:10574000109252050E94A9056093490770934A0779
:1057500080934B0790934C0728E030E043E050E003
:1057600069E077E0CE0107960E94761ACE0107968F
:105770000E940418AB01BC0140934A0550934B05AD
:1057800060934C0570934D05CE0101960E940F1A4F
:10579000BE016F5F7F4FCE0107960E942418CE0195
:1057A00001960E946F186BEA74E0CE0101960E9488
:1057B000651A4B855C856F817885CE0101960E94C4
:1057C0009F18811104C0CE0101960E945D18CE0180
:1057D00001960E941C19BC018DEF95E00E94E41413
:1057E000CE0101960E946F1860914A0570914B0599
:1057F00080914C0590914D050E948F131093520596
:10580000CE0107960E946F1823E030E050E040E0A0
:1058100063E077E0CE0101960E94761A68E175E0B8
:10582000CE0101960E940F18F82ECE0101960E941B
:105830006F18FF2009F464C0109252050E94A90558
:105840006093490770934A0780934B0790934C07E6
:1058500028E030E043E050E063E077E0CE010796D7
:105860000E94761ACE0107960E940418AB01BC0173
:1058700040934A0550934B0560934C0570934D053A
:10588000CE0101960E940F1ABE016F5F7F4FCE01BD
:1058900007960E942418CE0101960E946F186BEAA9
:1058A00074E0CE0101960E94651A4B855C856F817C
:1058B0007885CE0101960E949F18811104C0CE0107
:1058C00001960E945D18CE0101960E941C19BC0130
:1058D00080E695E00E94B705CE0101960E946F1800
:1058E00060914A0570914B0580914C0590914D0552
:1058F0000E948F1310935205CE0107960E946F18D5
:1059000022E030E050E040E069E077E0CE0101962F
:105910000E94761A6CE175E0CE0101960E940F1884
:10592000F82ECE0101960E946F18FF2009F476C070
:105930006DB67EB64CE250E058874F83C0900D079D
:10594000D0900E078DB79EB78C199D090FB6F894AD
:105950009EBF0FBE8DBFADB7BEB711967D01A6012C
:10596000BD0189E097E00E945514BE01695F7F4F39
:10597000C7010E94A62DF12CE12C009711F1E11432
:10598000F10461F0EC14FD044CF4B1E0EB16F10409
:1059900081F4BC018DE297E00E943C1AFFEFEF1A00
:1059A000FF0ABE01695F7F4F90E080E00E94A62D54
:1059B000E4CFE2E0EE16F10489F7BC0187E297E05C
:1059C000EBCF6DE277E0CE0101960E944B1ABE014B
:1059D0006F5F7F4F88E20E94DD1BCE0101960E941F
:1059E0006F1867E277E0CE0101960E944B1ABE0164
:1059F0006F5F7F4F8EE30E94DD1BCE0101960E94F8
:105A00006F1810933D056FE175E081E297E00E9409
:105A1000051A0FB6F8947EBE0FBE6DBE10923F05FC
:105A200060E174E089E097E00E94051A10923E055B
:105A300060E174E083E097E00E94051A0E94091675
:105A4000609147058EE10E94E704609149058FE16E
:105A50000E94E7040E94BF19B2C887EF96E00E9437
:105A60006F188DEF96E00E946F1883E097E00E9418
:105A70006F1889E097E00E946F188FE097E00E940E
:105A80006F1885E197E00E946F188BE197E00E9404
:105A90006F1881E297E00E946F1887E297E00E94FA
:105AA0006F188DE297E00E946F1883E397E00E94E1
:105AB0006F1889E397E00E946F188FE397E00C94CA
:105AC0006F18FC0188279927E89421912032E9F387
:105AD000293010F02E30C8F32B3241F02D3239F43A
